:100000000C9434000C943E000C943E000C943E0082
:100010000C943E000C943E000C943E000C943E0068
:100020000C943E000C943E000C943E000C943E0058
:100030000C943E000C943E000C9440000C943E0046
:100040000C943E000C943E000C943E000C943E0038
:100050000C943E000C943E000C943E000C943E0028
:100060000C943E000C943E0011241FBECFEFD8E04C
:10007000DEBFCDBF0E9452000C9460000C940000C3
:100080001F920F920FB60F9211248F939F9385B1F9
:1000900090E2892785B99F918F910F900FBE0F90A5
:1000A0001F901895F894259A2D9A82E084BD95E0CA
:1000B00095BD16BC9FE097BD80936E007894FFCFEE
:0400C000F894FFCFE2
:00000001FF
