:100000000C9434000C943E000C943E000C943E0082
:100010000C943E000C943E000C943E000C943E0068
:100020000C943E000C943E000C943E000C943E0058
:100030000C943E000C943E000C943E000C943E0048
:100040000C943E000C943E000C943E000C943E0038
:100050000C943E000C943E000C943E000C943E0028
:100060000C943E000C943E0011241FBECFEFD8E04C
:10007000DEBFCDBF0E9440000C9453000C940000E2
:10008000259A2D9A80E090E2843640F4EFE3FCE973
:100090003197F1F700C000008F5FF6CF85B1892757
:0A00A00085B980E0F3CFF894FFCF9C
:00000001FF
